:020000040800F2
:1000000000000220D5210008691E00086B1E0008B0
:100010006D1E00086F1E0008711E00080000000021
:10002000000000000000000000000000731E000837
:10003000751E000800000000771E0008791E0008E9
:100040002522000825220008252200082522000874
:100050002522000825220008252200082522000864
:100060002522000825220008252200082522000854
:100070002522000825220008252200082522000844
:100080002522000825220008252200082522000834
:10009000252200082522000825220008811E0008CC
:1000A0002522000825220008252200082522000814
:1000B0002522000825220008252200082522000804
:1000C000252200082522000825220008951E000888
:1000D00025220008252200082522000825220008E4
:1000E000A51E000825220008252200082522000858
:1000F00025220008252200082522000825220008C4
:1001000025220008252200082522000825220008B3
:100110002522000825220008D11E0008E91E00083B
:10012000252200082522000825220008F91E0008C3
:100130002522000825220008252200082522000883
:10014000252200082522000825220008091F000892
:100150002522000825220008252200082522000863
:100160002522000825220008252200082522000853
:100170002522000825220008252200080000000092
:080180002522000825220008D9
:1001900010B5054C237833B9044B13B10448AFF3C1
:1001A00000800123237010BD4808002000000000DB
:1001B000105A030808B5034B1BB103490348AFF3BA
:1001C000008008BD000000004C080020105A030801
:1001D00081F0004102E000BF83F0004330B54FEAF8
:1001E00041044FEA430594EA050F08BF90EA020F65
:1001F0001FBF54EA000C55EA020C7FEA645C7FEAF8
:10020000655C00F0E2804FEA5454D4EB5555B8BF1A
:100210006D420CDD2C4480EA020281EA030382EA8B
:10022000000083EA010180EA020281EA0303362D1D
:1002300088BF30BD11F0004F4FEA01314FF4801CF0
:100240004CEA113102D0404261EB410113F0004F02
:100250004FEA03334CEA133302D0524263EB4303B9
:1002600094EA050F00F0A780A4F10104D5F1200E57
:100270000DDB02FA0EFC22FA05F2801841F10001B2
:1002800003FA0EF2801843FA05F359410EE0A5F186
:1002900020050EF1200E012A03FA0EFC28BF4CF0B7
:1002A000020C43FA05F3C01851EBE37101F000456D
:1002B00007D54FF0000EDCF1000C7EEB00006EEB7A
:1002C0000101B1F5801F1BD3B1F5001F0CD3490804
:1002D0005FEA30004FEA3C0C04F101044FEA44525B
:1002E00012F5800F80F09A80BCF1004F08BF5FEAE2
:1002F000500C50F1000041EB045141EA050130BDC2
:100300005FEA4C0C404141EB0101013C28BFB1F5D3
:10031000801FE9D291F0000F04BF01460020B1FA1E
:1003200081F308BF2033A3F10B03B3F120020CDAF1
:100330000C3208DD02F1140CC2F10C0201FA0CF0CF
:1003400021FA02F10CE002F11402D8BFC2F1200C34
:1003500001FA02F120FA0CFCDCBF41EA0C019040EA
:10036000E41AA2BF01EB0451294330BD6FEA040433
:100370001F3C1CDA0C340EDC04F11404C4F120021E
:1003800020FA04F001FA02F340EA030021FA04F330
:1003900045EA030130BDC4F10C04C4F1200220FA87
:1003A00002F001FA04F340EA0300294630BD21FAC5
:1003B00004F0294630BD94F0000F83F4801306BF8B
:1003C00081F480110134013D4EE77FEA645C18BF7F
:1003D0007FEA655C29D094EA050F08BF90EA020F16
:1003E00005D054EA000C04BF1946104630BD91EA0E
:1003F000030F1EBF0021002030BD5FEA545C05D111
:100400004000494128BF41F0004130BD14F580044F
:100410003CBF01F5801130BD01F0004545F0FE41C3
:1004200041F470014FF0000030BD7FEA645C1ABFF8
:10043000194610467FEA655C1CBF0B46024650EA2F
:10044000013406BF52EA033591EA030F41F400215B
:1004500030BD00BF90F0000F04BF0021704730B5E1
:100460004FF4806404F132044FF000054FF00001B6
:1004700050E700BF90F0000F04BF0021704730B577
:100480004FF4806404F1320410F0004548BF40424C
:100490004FF000013EE700BF42004FEAE2014FEAA1
:1004A00031014FEA02701FBF12F07F4393F07F4F7C
:1004B00081F06051704732F07F4208BF704793F07F
:1004C0007F4F04BF41F40021704730B54FF4607492
:1004D00001F0004521F000411CE700BF50EA010295
:1004E00008BF704730B54FF000050AE050EA01023E
:1004F00008BF704730B511F0004502D5404261EBAE
:1005000041014FF4806404F132045FEA915C3FF4EE
:10051000D8AE4FF003025FEADC0C18BF03325FEA8B
:10052000DC0C18BF033202EBDC02C2F1200300FA3C
:1005300003FC20FA02F001FA03FE40EA0E0021FA61
:1005400002F11444BDE600BF4FEA4102B2F1E043BC
:1005500024BFB3F5001CDCF1FE5C0DD901F0004CAA
:100560004FEAC0024CEA5070B2F1004F40EB8300FA
:1005700008BF20F00100704711F0804F21D113F126
:100580003872BCBF01F00040704741F480114FEA5F
:100590005252C2F11802C2F1200C10FA0CF320FAE8
:1005A00002F018BF40F001004FEAC1234FEAD32305
:1005B00003FA0CFC40EA0C0023FA02F34FEA43036F
:1005C000CCE77FEA625307D150EA01331EBF4FF0F8
:1005D000FE4040F44000704701F0004040F0FE4013
:1005E00040F40000704700BF80F0004002E000BF10
:1005F00081F0004142001FBF5FEA410392EA030F0E
:100600007FEA226C7FEA236C6AD04FEA1262D2EB57
:100610001363C1BFD218414048404140B8BF5B425C
:10062000192B88BF704710F0004F40F4000020F0F5
:100630007F4018BF404211F0004F41F4000121F00B
:100640007F4118BF494292EA030F3FD0A2F1010255
:1006500041FA03FC10EB0C00C3F1200301FA03F193
:1006600000F0004302D5494260EB4000B0F5000FB6
:1006700013D3B0F1807F06D340084FEA310102F175
:100680000102FE2A51D2B1F1004F40EBC25008BF27
:1006900020F0010040EA03007047490040EB0000F1
:1006A000013A28BFB0F5000FEDD2B0FA80FCACF1F2
:1006B000080CB2EB0C0200FA0CF0AABF00EBC2501F
:1006C00052421843BCBFD0401843704792F0000F0D
:1006D00081F4000106BF80F400000132013BB5E760
:1006E0004FEA41037FEA226C18BF7FEA236C21D0D6
:1006F00092EA030F04D092F0000F08BF084670473B
:1007000090EA010F1CBF0020704712F07F4F04D108
:10071000400028BF40F00040704712F100723CBF1B
:1007200000F50000704700F0004343F0FE4040F445
:10073000000070477FEA226216BF08467FEA236303
:100740000146420206BF5FEA412390EA010F40F4EE
:10075000800070474FF0000304E000BF10F000433A
:1007600048BF40425FEA000C08BF704743F0964321
:1007700001464FF000001CE050EA010208BF70473C
:100780004FF000030AE000BF50EA010208BF7047C3
:1007900011F0004302D5404261EB41015FEA010CD8
:1007A00002BF84460146002043F0B64308BFA3F1D0
:1007B0008053A3F50003BCFA8CF2083AA3EBC253B2
:1007C00010DB01FA02FC634400FA02FCC2F12002D1
:1007D000BCF1004F20FA02F243EB020008BF20F008
:1007E0000100704702F1200201FA02FCC2F120026E
:1007F00050EA4C0021FA02F243EB020008BF20EA63
:10080000DC7070474FF0FF0C1CEAD0521EBF1CEA90
:10081000D15392EA0C0F93EA0C0F6FD01A4480EA7E
:10082000010C400218BF5FEA41211ED04FF0006367
:1008300043EA501043EA5111A0FB01310CF0004093
:10084000B1F5000F3EBF490041EAD3715B0040EAB9
:10085000010062F17F02FD2A1DD8B3F1004F40EB89
:10086000C25008BF20F00100704790F0000F0CF05C
:10087000004C08BF49024CEA502040EA51207F3A20
:10088000C2BFD2F1FF0340EAC250704740F40000FB
:100890004FF00003013A5DDC12F1190FDCBF00F0EC
:1008A00000407047C2F10002410021FA02F1C2F19A
:1008B000200200FA02FC5FEA310040F1000053EA36
:1008C0004C0308BF20EADC70704792F0000F00F084
:1008D000004C02BF400010F4000F013AF9D040EA8A
:1008E0000C0093F0000F01F0004C02BF490011F41E
:1008F000000F013BF9D041EA0C018FE70CEAD1531C
:1009000092EA0C0F18BF93EA0C0F0AD030F0004C9B
:1009100018BF31F0004CD8D180EA010000F000404F
:10092000704790F0000F17BF90F0004F084691F00D
:10093000000F91F0004F14D092EA0C0F01D1420247
:100940000FD193EA0C0F03D14B0218BF084608D110
:1009500080EA010000F0004040F0FE4040F400005A
:10096000704740F0FE4040F4400070474FF0FF0CED
:100970001CEAD0521EBF1CEAD15392EA0C0F93EA34
:100980000C0F69D0A2EB030280EA010C49024FEA86
:10099000402037D04FF0805343EA111143EA10133F
:1009A0000CF000408B4238BF5B0042F17D024FF4F7
:1009B000000C8B4224BF5B1A40EA0C00B3EB510FD2
:1009C00024BFA3EB510340EA5C00B3EB910F24BFBB
:1009D000A3EB910340EA9C00B3EBD10F24BFA3EB40
:1009E000D10340EADC001B0118BF5FEA1C1CE0D108
:1009F000FD2A3FF650AF8B4240EBC25008BF20F0BB
:100A0000010070470CF0004C4CEA50207F32C2BF0E
:100A1000D2F1FF0340EAC250704740F400004FF0AB
:100A20000003013A37E792F0000F00F0004C02BFDC
:100A3000400010F4000F013AF9D040EA0C0093F0A6
:100A4000000F01F0004C02BF490011F4000F013B00
:100A5000F9D041EA0C0195E70CEAD15392EA0C0F68
:100A600008D142027FF47DAF93EA0C0F7FF470AFA0
:100A7000084676E793EA0C0F04D14B023FF44CAFE3
:100A800008466EE730F0004C18BF31F0004CCAD178
:100A900030F000427FF45CAF31F000437FF43CAFB4
:100AA0005FE700BF4FF0FF3C06E000BF4FF0010CD6
:100AB00002E000BF4FF0010C4DF804CD4FEA4002B8
:100AC0004FEA41037FEA226C18BF7FEA236C11D002
:100AD00001B052EA530C18BF90EA010F58BFB2EBB5
:100AE000030088BFC81738BF6FEAE17018BF40F035
:100AF000010070477FEA226C02D15FEA402C05D1E9
:100B00007FEA236CE4D15FEA412CE1D05DF8040B6D
:100B1000704700BF844608466146FFE70FB5FFF700
:100B2000C9FF002848BF10F1000F0FBD4DF808EDB8
:100B3000FFF7F4FF0CBF012000205DF808FB00BFA9
:100B40004DF808EDFFF7EAFF34BF012000205DF803
:100B500008FB00BF4DF808EDFFF7E0FF94BF012050
:100B600000205DF808FB00BF4DF808EDFFF7D2FF4D
:100B700094BF012000205DF808FB00BF4DF808ED90
:100B8000FFF7C8FF34BF012000205DF808FB00BF5D
:100B90004FEA4002B2F1FE4F0FD34FF09E03B3EB8A
:100BA00012620DD94FEA002343F0004310F0004FCA
:100BB00023FA02F018BF404270474FF00000704720
:100BC00012F1610F01D1420205D110F0004008BFBF
:100BD0006FF0004070474FF00000704742000ED2A7
:100BE000B2F1FE4F0BD34FF09E03B3EB126209D468
:100BF0004FEA002343F0004323FA02F070474FF01E
:100C00000000704712F1610F01D1420202D14FF092
:100C1000FF3070474FF00000704700BF53B94AB92A
:100C2000002908BF00281CBF4FF0FF314FF0FF30F4
:100C300000F06AB9ADF1080C6DE904CE00F006F8D9
:100C4000DDF804E0DDE9022304B070472DE9F04748
:100C5000089D0C46002B4ED194468C458646B2FA30
:100C600082F262D94AB1C2F12003914020FA03F323
:100C70000CFA02FC194300FA02FE4FEA1C471FFA65
:100C80008CF6B1FBF7F44FEA1E4307FB141143EA5D
:100C9000014304FB06F199420AD91CEB030304F15A
:100CA000FF3080F01281994240F20F81023C634490
:100CB000591A1FFA8EF3B1FBF7F007FB101143EA44
:100CC000014300FB06F69E420AD91CEB030300F128
:100CD000FF3180F0FC809E4240F2F980634402388C
:100CE0009B1B40EA044000211DB1D3400022C5E90E
:100CF0000032BDE8F0878B4205D90DB1C5E900018E
:100D000000210846F5E7B3FA83F1002946D1A34252
:100D100002D39042C0F0F080861A64EB03030120F6
:100D2000002DE6D0C5E90063E3E7002A40F090809B
:100D3000A1EB0C044FEA1C481FFA8CF70121B4FB0D
:100D4000F8F64FEA1E4308FB164443EA044307FB48
:100D500006F0984208D91CEB030306F1FF3402D2D7
:100D6000984200F2CD8026461C1A1FFA8EF3B4FB7F
:100D7000F8F008FB104443EA044300FB07F79F42E6
:100D800008D91CEB030300F1FF3402D29F4200F2AA
:100D9000B0802046DB1B40EA0640A5E7C1F12006F3
:100DA0008B4022FA06F71F4320FA06FC04FA01F3EF
:100DB00043EA0C03F44000FA01F8380C4FEA1349F7
:100DC000B4FBF0FE1FFA87FC00FB1E4449EA044412
:100DD0000EFB0CF9A14502FA01F20AD93C190EF1F9
:100DE000FF3A80F08480A14540F28180AEF1020E8E
:100DF0003C44A4EB09041FFA83F9B4FBF0F300FBB5
:100E0000134449EA044403FB0CFCA44507D93C19EC
:100E100003F1FF3067D2A44565D9023B3C4443EA65
:100E20000E40A0FB0293A4EB0C049C42CE469C46D1
:100E300051D34ED055B1B8EB0E0364EB0C0404FA59
:100E400006F6CB401E43CC40C5E90064002150E7C4
:100E5000C2F1200320FA03F10CFA02FC24FA03F396
:100E600094400C434FEA1C4800FA02FE1FFA8CF72C
:100E7000B3FBF8F008FB1031230C43EA014300FBFD
:100E800007F1994208D91CEB030300F1FF362CD27D
:100E900099422AD9023863445B1AA4B2B3FBF8F131
:100EA00008FB113344EA034401FB07F3A34208D9CA
:100EB0001CEB040401F1FF3613D2A34211D902390D
:100EC0006444E41A41EA004139E70446F0E6084682
:100ED00006E7C845AED2B9EB020E63EB070C01384A
:100EE000A8E73146EDE7034699E73046D4E7D64612
:100EF0007FE7634402384DE70646234608460FE77E
:100F0000023E634430E700BF704700BF10F8012B7A
:100F100011F8013B012A28BF9A42F7D0D01A704736
:100F2000034613F8012B002AFBD1181A0138704729
:100F300001F0FF01102A2BDB10F0070F08D010F88A
:100F4000013B013A8B422DD010F0070F42B3F6D18E
:100F5000F0B441EA012141EA014122F007047FF0A7
:100F600000070023F0E80256083C85EA010586EAFE
:100F7000010685FA47F5A3FA87F586FA47F6A5FA3A
:100F800087F68EB9EED1F0BC01F0FF0102F0070246
:100F900032B110F8013B013A83EA010313B1F8D1F1
:100FA0000020704701387047002D06BF35460338D2
:100FB000073815F0010F07D1013015F4807F02BF0B
:100FC000013015F4C03F0130F0BC0138704700BF5C
:100FD00070B54FF0FF0C4CF4E06C1CEA11541DBFCF
:100FE0001CEA135594EA0C0F95EA0C0F00F0DEF89A
:100FF0002C4481EA030621EA4C5123EA4C5350EA7F
:10100000013518BF52EA033541F4801143F48013CF
:1010100038D0A0FB02CE4FF00005E1FB02E506F060
:101020000042E0FB03E54FF00006E1FB03569CF0B5
:10103000000F18BF4EF0010EA4F1FF04B6F5007FBB
:1010400064F5407404D25FEA4E0E6D4146EB06062D
:1010500042EAC62141EA55514FEAC52040EA5E50B6
:101060004FEACE2EB4F1FD0C88BFBCF5E06F1ED860
:10107000BEF1004F08BF5FEA500E50F1000041EB97
:10108000045170BD06F0004646EA010140EA020044
:1010900081EA0301B4EB5C04C2BFD4EB0C0541EA66
:1010A000045170BD41F480114FF0000E013C00F37B
:1010B000AB8014F1360FDEBF002001F0004170BD9F
:1010C000C4F10004203C35DA0C341BDC04F11404B8
:1010D000C4F1200500FA05F320FA04F001FA05F244
:1010E00040EA020001F0004221F0004110EBD37011
:1010F00021FA04F642EB06015EEA430E08BF20EA3D
:10110000D37070BDC4F10C04C4F1200500FA04F3DF
:1011100020FA05F001FA04F240EA020001F0004171
:1011200010EBD37041F100015EEA430E08BF20EAE4
:10113000D37070BDC4F1200500FA05F24EEA020E2C
:1011400020FA04F301FA05F243EA020321FA04F05B
:1011500001F0004121FA04F220EA020000EBD37012
:101160005EEA430E08BF20EAD37070BD94F0000F12
:101170000FD101F00046400041EB010111F4801F46
:1011800008BF013CF7D041EA060195F0000F18BFF7
:10119000704703F00046520043EB030313F4801F33
:1011A00008BF013DF7D043EA0603704794EA0C0FED
:1011B0000CEA135518BF95EA0C0F0CD050EA410603
:1011C00018BF52EA4306D1D181EA030101F0004180
:1011D0004FF0000070BD50EA410606BF10461946A8
:1011E00052EA430619D094EA0C0F02D150EA0136B4
:1011F00013D195EA0C0F05D152EA03361CBF1046F5
:1012000019460AD181EA030101F0004141F0FE4193
:1012100041F470014FF0000070BD41F0FE4141F417
:10122000780170BD70B54FF0FF0C4CF4E06C1CEA17
:1012300011541DBF1CEA135594EA0C0F95EA0C0FCC
:1012400000F0A7F8A4EB050481EA030E52EA033587
:101250004FEA013100F088804FEA03334FF08055A8
:1012600045EA131343EA12634FEA022245EA1115D5
:1012700045EA10654FEA00260EF000419D4208BF86
:10128000964244F1FD0404F5407402D25B084FEA33
:101290003202B61A65EB03055B084FEA32024FF4DF
:1012A00080104FF4002CB6EB020E75EB030E22BF3C
:1012B000B61A754640EA0C005B084FEA3202B6EBFC
:1012C000020E75EB030E22BFB61A754640EA5C00AB
:1012D0005B084FEA3202B6EB020E75EB030E22BF3B
:1012E000B61A754640EA9C005B084FEA3202B6EB3C
:1012F000020E75EB030E22BFB61A754640EADC00FB
:1013000055EA060E18D04FEA051545EA16754FEA5C
:1013100006164FEAC30343EA52734FEAC2025FEA7A
:101320001C1CC0D111F4801F0BD141EA00014FF009
:1013300000004FF0004CB6E711F4801F04BF0143DA
:101340000020B4F1FD0C88BFBCF5E06F3FF6AFAEF6
:10135000B5EB030C04BFB6EB020C5FEA500C50F186
:10136000000041EB045170BD0EF0004E4EEA113109
:1013700014EB5C04C2BFD4EB0C0541EA045170BD10
:1013800041F480114FF0000E013C90E645EA060E54
:101390008DE60CEA135594EA0C0F08BF95EA0C0F82
:1013A0003FF43BAF94EA0C0F0AD150EA01347FF4CA
:1013B00034AF95EA0C0F7FF425AF104619462CE7A1
:1013C00095EA0C0F06D152EA03353FF4FDAE104604
:1013D000194622E750EA410618BF52EA43067FF455
:1013E000C5AE50EA41047FF40DAF52EA43057FF4E5
:1013F000EBAE12E74FF0FF3C06E000BF4FF0010CF0
:1014000002E000BF4FF0010C4DF804CD4FEA410C53
:101410007FEA6C5C4FEA430C18BF7FEA6C5C1BD020
:1014200001B050EA410C0CBF52EA430C91EA030FA1
:1014300002BF90EA020F0020704710F1000F91EAFE
:10144000030F58BF994208BF90422CBFD8176FEACC
:10145000E37040F0010070474FEA410C7FEA6C5C9A
:1014600002D150EA013C07D14FEA430C7FEA6C5CA1
:10147000D6D152EA033CD3D05DF8040B704700BFCD
:101480008446104662468C461946634600E000BF1B
:1014900001B5FFF7B7FF002848BF10F1000F01BDED
:1014A0004DF808EDFFF7F4FF0CBF012000205DF8B8
:1014B00008FB00BF4DF808EDFFF7EAFF34BF01203D
:1014C00000205DF808FB00BF4DF808EDFFF7E0FFD6
:1014D00094BF012000205DF808FB00BF4DF808ED27
:1014E000FFF7CEFF94BF012000205DF808FB00BF8E
:1014F0004DF808EDFFF7C4FF34BF012000205DF870
:1015000008FB00BF4FEA410C7FEA6C5C02D150EA55
:10151000013C0AD14FEA430C7FEA6C5C02D152EAEB
:10152000033C02D14FF0000070474FF001007047BC
:101530004FEA410212F5001215D211D56FF47873FB
:10154000B3EB625212D94FEAC12343F0004343EA9E
:10155000505311F0004F23FA02F018BF4042704779
:101560004FF00000704750EA013005D111F0004003
:1015700008BF6FF0004070474FF00000704700BF99
:1015800000B583B00023009301931048104B036013
:1015900000F02CFF88B900220092022301936946D3
:1015A0000A4800F0BBFF58B910226946074800F00E
:1015B000B5FF40B903B05DF804FB00F0B1FAEAE70B
:1015C00000F0AEFAF0E700F0ABFAF3E764080020B1
:1015D0000074004010B588B0002303930493059372
:1015E000069307930268164B9A4201D008B010BDCB
:1015F0000024019403F5E2331A6C42F000521A649D
:101600001A6C02F000520192019A02941A6B42F095
:1016100001021A631B6B03F001030293029B302348
:1016200003930323049303A9064801F0C3F9224658
:101630002146362000F0B2FE362000F0BFFED5E78E
:10164000007400400000024000B583B00021019109
:10165000094B1A6B42F480021A631B6B03F480037C
:101660000193019B0A463B2000F098FE3B2000F0CE
:10167000A5FE03B05DF804FB003802402DE9F041FF
:101680008AB0002405940694079408940994009461
:10169000404B1A6B42F080021A631A6B02F0800210
:1016A0000092009A01941A6B42F001021A631A6BBD
:1016B00002F001020192019A02941A6B42F00202B6
:1016C0001A631A6B02F002020292029A03941A6BD6
:1016D00042F008021A631A6B02F008020392039A9E
:1016E00004941A6B42F010021A631B6B03F0100390
:1016F0000493049BDFF8A08022464FF4E04140466B
:1017000001F052FA254E2246F221304601F04CFA01
:10171000234F22460221384601F046FA4FF4E043B7
:101720000593012506950794089405A9404601F004
:1017300041F94FF4FE4305934FF4041306930794C5
:1017400005A9304601F036F9F22305930695079472
:10175000089405A9304601F02DF90223059306955A
:101760000794089405A9384601F024F92246214639
:10177000172000F013FE172000F020FE224621461D
:10178000282000F00BFE282000F018FE0AB0BDE86B
:10179000F08100BF0038024000040240000C02400B
:1017A0000010024008B50B480B4B03600B4B436025
:1017B00000238360C3604FF4804202614361836110
:1017C000C361036201F0F2FB00B908BD00F0A8F9A3
:1017D000FBE700BFCC08002000540040A0860100B9
:1017E00008B50B480B4B03600B4B43600023836031
:1017F000C3604FF48042026143618361C36103624D
:1018000001F0D4FB00B908BD00F08AF9FBE700BF86
:101810007808002000580040A086010030B58BB049
:101820000023059306930793089309930368294AB5
:10183000934204D0284A934226D00BB030BD0025F5
:101840000195264C236B43F002032363236B03F0C3
:1018500002030193019BC0230593122306930123E6
:101860000793032308930423099305A91C4801F057
:10187000A1F80295236C43F400132364236C03F452
:1018800000130293029BD8E700250395134C236BAA
:1018900043F002032363236B03F002030393039BD0
:1018A0004FF4406305931223069301230793032308
:1018B00008930423099305A9094801F07BF80495CE
:1018C000236C43F480032364236C03F480030493A8
:1018D000049BB2E70054004000580040003802402A
:1018E0000004024000280CDD0C490A6801320C4B50
:1018F00083FB0203A3EBE27303EB4303D31A0B60F6
:10190000704706490A680232054B83FB0203A3EBCA
:10191000E27303EB4303D31A0B60704750090020B6
:10192000565555552DE9F04F83B02DF08FFDFEF73C
:10193000B3FD80468946DFF890A0244CCDE90089AC
:101940005246102120462EF049F92146204B1868B6
:1019500028F052FA2DF0A6FDFEF79EFD06460F4632
:101960001C4CCDE900675246102120462EF036F976
:101970002146194B186828F03FFA2DF079FDFEF743
:101980008BFD04460D46DFF854B0CDE900455246C4
:10199000102158462EF022F95946114B186828F0AC
:1019A0002BFA42464B460F482EF0B8F832463B46DB
:1019B0000D482EF0B3F822462B460C482EF0AEF818
:1019C00003B0BDE8F08F00BF485A0308400900206B
:1019D0003C0B002030090020300B002020090020A3
:1019E000280B0020505A0308605A0308705A030855
:1019F0002DE9F8430746294BD3F80090484633F0C9
:101A0000A1FF8046FFF7C4F8254D85FB0023C417CE
:101A1000C4EBA30404EB8403A0EB43064146484611
:101A2000FEF7E6FD1F49FEF7EDFE33F0CDFFFFF7B1
:101A3000AFF885FB0023C517C5EBA30505EB8505AE
:101A4000A0EB4505184B1B6803BB3C4404EB840426
:101A500006EB4400FEF782FE04462846FEF77EFEB3
:101A60001249FEF7CFFE01462046FEF7C3FD0446AD
:101A70000021FFF765F878B90D492046FFF77EF899
:101A800000B10B4C054B1C60BDE8F883012B01D065
:101A90003D44DBE73E44D9E70024EDE700000020A9
:101AA000676666660000204150090020CDCCCC3D21
:101AB0000000D44108B50346B0F5805F01D340F67D
:101AC000FF7300221021024800F0D8FC08BD00BFBF
:101AD0006408002008B5084691B22DF07DFA08BDD3
:101AE00008B50268044B1B689A4200D008BD01206B
:101AF0001FF0FAF9FAE700BF580A002008B50022E3
:101B00004FF4FA71044821F033FF00B108BD0348D7
:101B10002EF05CF8FAE700BF25190008805A030888
:101B200072B6FEE700B595B03022002108A82EF06D
:101B3000E6F8002303930493059306930793019318
:101B4000214A116C41F080511164126C02F08052F4
:101B50000192019A02931D4B1A6842F480421A6066
:101B60001B6803F480430293029B012308934FF404
:101B70008033099302230E934FF480020F921922AF
:101B800010924FF4A872119212930723139308A88E
:101B900002F09EFA98B90F230393022304930023C3
:101BA00005934FF4A05306934FF4805307930521F8
:101BB00003A802F0DDFC20B915B05DF804FBFFF7C7
:101BC000AFFFFFF7ADFF00BF0038024000700040DC
:101BD00030B583B000F04EFBFFF7A4FFFFF74EFDDA
:101BE000FFF732FD00F0EAF900F010FA00F0A0F87B
:101BF000FFF7D8FDFFF7F4FD2DF09CF9FFF7C0FCCF
:101C000000F0A8FA3E4803F04DF93E4803F04AF9C7
:101C10002DF022FE642000F059FB06F035F904F0A7
:101C20003BFE642000F052FB04F0D8FD642000F07D
:101C30004DFBFFF763FF642000F048FB324C0021AE
:101C4000204600F0E5FB1021204600F0E1FB0122D8
:101C500002212E4800F0A8FF3EE00120FFF7C8FE59
:101C60002B4B00221A703DE04FF0FF30FFF7C0FE13
:101C7000284B00221A7039E00120FFF733FE264B73
:101C800000221A7036E04FF0FF30FFF72BFE234B97
:101C900000221A70224D23492868FEF767FE01468C
:101CA0004FF07E50FEF7A4FC1F49FEF7ABFD33F06A
:101CB0008BFEFEF793FF0446FFF7FCFE2868FEF755
:101CC000EBFB02460B46009418482DF027FF21F04D
:101CD000AFFE052000F0FAFA2DF042FC0C4B1B7809
:101CE000002BBAD10B4B1B78002BBDD10A4B1B78B4
:101CF000002BC1D1094B1B78002BC4D1CAE700BF10
:101D0000580A0020100A0020640800200010024039
:101D10009C1101209D1101209F1101209E11012085
:101D2000000000200000D44100F07F45985A0308CD
:101D300008B50E480E4B03604FF4827343604FF4B6
:101D4000004383600023C360036143614FF400726A
:101D50008261C3610362436283620A23C36202F049
:101D600071FD00B908BDFFF7DBFEFBE7B4090020F9
:101D70000030014030B589B00023039304930593EC
:101D8000069307930268264B9A4201D009B030BDF2
:101D900004460025019503F584335A6C42F48052C1
:101DA0005A645A6C02F480520192019A02951A6B9D
:101DB00042F002021A631B6B03F002030293029BC0
:101DC00028230393022304930323069305230793F5
:101DD00003A9144800F0EEFD1348144B03604FF0C4
:101DE000C063436040238360C5604FF48063036138
:101DF00045618561C5610562456200F03FFC58B9E7
:101E0000094BA3649C6300221146232000F0C6FA0C
:101E1000232000F0D3FAB9E7FFF782FEF0E700BF16
:101E20000030014000040240540900205864024080
:101E300082B0002100910B4B5A6C42F480425A64EC
:101E40005A6C02F480420092009A01911A6C42F09E
:101E500080521A641B6C03F080530193019B02B003
:101E6000704700BF00380240FEE7FEE7FEE7FEE7EE
:101E7000FEE770477047704708B500F015FA08BDD7
:101E800008B54FF4807000F095FE4FF4007000F03C
:101E900091FE08BD08B5024802F0D8FE08BD00BF9B
:101EA000B409002008B54FF4806000F083FE4FF4C1
:101EB000006000F07FFE4FF4805000F07BFE4FF496
:101EC000005000F077FE4FF4804000F073FE08BD34
:101ED00008B5034800F0ECFA024803F02BF808BDFF
:101EE00064080020580A002008B5024803F022F8D0
:101EF00008BD00BF100A002008B5024800F06CFCC5
:101F000008BD00BF5409002008B5024801F0D9FD02
:101F100008BD00BFA00C01200120704708B52DF0BE
:101F20003DFF162303604FF0FF3008BD08B54FF0AA
:101F3000FF31FFF7F3FFFEE770B50C4616460025AC
:101F400006E0AFF30080214601F8010B01350C4695
:101F5000B542F6DB304670BD4FF0FF3070474FF4AE
:101F600000534B60002070470120704700207047ED
:101F700010B503460C4A0D490D48006840B10C48A5
:101F800000680344521A934206D8094A136010BDF0
:101F90000748084C0460F2E72DF000FF0C230360B3
:101FA0004FF0FF30F3E700BF0000022000100000F8
:101FB0000C0A0020101E01207047000000B583B0FD
:101FC0000023009301930F480F4A0260532242609E
:101FD000836040F2E733C3608023836103F0C2F87B
:101FE00050B90023009301936946064803F0B8F9FD
:101FF00028B903B05DF804FBFFF792FDF1E7FFF7A6
:102000008FFDF6E7580A00200010004000B583B0AD
:102010000023009301931048104A026040F2A3127B
:102020004260836040F2E733C3608023836103F042
:1020300099F850B90023009301936946064803F0CC
:102040008FF928B903B05DF804FBFFF769FDF1E7EC
:10205000FFF766FDF6E700BF100A002000140040FD
:102060000368B3F1804F00D0704782B00023019322
:10207000054B1A6C42F001021A641B6C03F0010359
:102080000193019B02B070470038024000B583B055
:102090000368184A934205D0174A934216D003B0FA
:1020A0005DF804FB00210091144B1A6C42F0100201
:1020B0001A641B6C03F010030093009B0A46362041
:1020C00000F06CF9362000F079F9E8E70021019181
:1020D0000A4B1A6C42F020021A641B6C03F02003B6
:1020E0000193019B0A46372000F058F9372000F091
:1020F00065F9D4E7001000400014004000380240A9
:1021000000B587B0002301930293039304930593D2
:102110000368B3F1804F02D007B05DF804FB0023E1
:1021200000930A4B1A6B42F001021A631B6B03F017
:1021300001030093009B0223019302930123059363
:1021400001A9034800F036FCE6E700BF0038024072
:102150000000024000B58BB000230893099301935F
:1021600002930393049305930693079318484FF043
:1021700080420260436083604FF0FF32C2600361BF
:10218000836103F01BF8D0B900230893099308A9D1
:102190000F4803F0E5F8A8B96023019300230293E8
:1021A0000393059304220DEB0201094803F06AF83A
:1021B00058B90748FFF7A4FF0BB05DF804FBFFF721
:1021C000AFFCE1E7FFF7ACFCE6E7FFF7A9FCF0E7BF
:1021D000A00A0020DFF834D0FFF7EEFE0C480D49CE
:1021E0000D4A002302E0D458C4500433C4188C4272
:1021F000F9D30A4A0A4C002301E013600432A242D8
:10220000FBD32DF0D1FDFFF7E3FC70470000022067
:102210000000002048080020A4DE03084808002031
:10222000101E0120FEE7000010B504460E4B1A7880
:102230004FF47A73B3FBF2F30C4A1068B0FBF3F07F
:1022400000F0C0F868B90F2C01D901200AE0002283
:1022500021464FF0FF3000F0A1F8054B1C60002034
:1022600000E0012010BD00BF080000200400002095
:102270000C00002008B50B4B1A6842F400721A607B
:102280001A6842F480621A601A6842F480721A6016
:10229000032000F071F80F20FFF7C6FFFFF7C8FD1D
:1022A000002008BD003C0240034A1168034B1B7824
:1022B0000B441360704700BFE80A002008000020AC
:1022C000014B1868704700BFE80A002038B5044683
:1022D000FFF7F6FF0546B4F1FF3F02D0044B1B7831
:1022E0001C44FFF7EDFF401BA042FAD338BD00BFEE
:1022F00008000020002807DB00F01F02400901232E
:102300009340024A42F82030704700BF00E100E0ED
:10231000002808DB0901C9B200F1604000F5614006
:1023200080F80013704700F00F000901C9B2014B9B
:102330001954704714ED00E000B500F00700C0F13B
:10234000070CBCF1040F28BF4FF0040C031D062B33
:102350000FD9C31E4FF0FF3E0EFA0CF021EA000128
:1023600099400EFA03FE22EA0E0241EA02005DF8ED
:1023700004FB0023EEE70000074AD36823F4E06380
:102380001B041B0C000200F4E060034343F0BF6336
:1023900043F40033D360704700ED00E010B504460D
:1023A000054BD868C0F30220FFF7C6FF0146204660
:1023B000FFF7AEFF10BD00BF00ED00E008B5FFF76E
:1023C00099FF08BD0138B0F1807F0BD24FF0E023B8
:1023D0005861054AF02182F82310002098610722F5
:1023E0001A6170470120704700ED00E070B110B530
:1023F0000446037933B102232371002020610123B5
:10240000237110BD4371FFF7E5F8F4E70120704731
:1024100080B303464279012A2ED010B401224271C2
:10242000022018711C68206801F0100C02FA0CF2EE
:102430000243226081B919680A6802F03C023C2A12
:1024400005D001221A710020587110BC70474A68EB
:1024500042F001024A60F4E71868016801F4701163
:102460003C2202FA0CF29142EBD1426842F00202A5
:102470004260E6E7012070470220704710B483B045
:102480000024019488B10068019049B901990A4477
:1024900008320192019A1360002003B010BC70470B
:1024A00001990A4414320192F4E70120F5E77047DC
:1024B00070B5044603681D685E6B15F4005F02D0BA
:1024C00016F4005F06D115F0005F02D016F0005F31
:1024D00011D170BD04220271026942F00102026151
:1024E0004FF400525A630268136823F48053136058
:1024F000FFF7DDFFE7E704232371236943F00203BD
:10250000236123684FF000525A632268136823F056
:1025100080531360204600F032F8DAE748B384466F
:1025200049B34379012B28D010B54FF0010E80F844
:1025300005E0022303710468206802F0100240F6EF
:10254000FE73934020EA03000B6849680B439340F5
:1025500003432360DCF800000368C02101FA02F2A3
:1025600023EA020303608CF804E000208CF80500E5
:1025700010BD01207047012070470220704770474E
:1025800030B405682C6824F480242C6004686360EF
:102590008368402B05D0036899600368DA6030BC1B
:1025A000704703689A600368D960F8E710B403685D
:1025B000D9B210390B4AA2FB014212090A4CA25CA3
:1025C000C2655F2908D923F47F7323F00303043322
:1025D0008365806D10BC704723F47F7323F0030381
:1025E0008365F6E7ABAAAAAAD05A0308836A826970
:1025F00092B9012B0AD0022B02D00BB100207047F8
:10260000C36A13F0807F28D100207047C36AB3F1FA
:10261000C07F24D000207047B2F5005F09D0022BA4
:1026200025D9032B25D1C36A13F0807F23D1002045
:102630007047032B03D8DFE803F01404140A0020CA
:102640007047C36A13F0807F0DD100207047C36AC2
:10265000B3F1C07F09D000207047012070470120EE
:10266000704701207047012070470120704701200A
:1026700070470020704701207047000070B5044685
:10268000FFF71EFE002C5BD00546022384F8353090
:10269000002384F834302268136823F001031360A8
:1026A00023681A6812F0010F0AD0FFF709FE431BD6
:1026B000052BF5D920236365032084F8350070BD10
:1026C0001A68204911406268A0680243E06802432A
:1026D0002069024360690243A0690243E069024342
:1026E000206A02430A43616A04291ED01A602668E0
:1026F000756925F00705636A1D43042B07D1A36A9A
:102700001D43E36A1BB12046FFF770FF90B9756166
:102710002046FFF74BFFE26D3F239340836000208C
:102720006065012384F83530C9E7E16A206B014315
:102730000A43DBE740236365012084F83500BEE7E8
:102740000120BCE73F8010F038B50446856D90F855
:10275000340001282BD0012084F8340094F835008F
:10276000C0B2012804D0002384F83430022038BDE0
:10277000022084F83500002060652046FFF700FF46
:10278000E26D3F239340AB602268136843F0160369
:102790001360236C23B12268136843F008031360AD
:1027A0002268136843F0010313600020DFE7022072
:1027B000DDE790F83530DBB2022B03D08023436590
:1027C00001207047052380F835300268136823F034
:1027D0000103136000207047F0B583B00446002366
:1027E0000193724B1D68724BA3FB0535AD0A876DD3
:1027F0003E68C26D08239340334210D003681A68C4
:1028000012F0040F0BD01A6822F004021A60C26D95
:1028100008239340BB60436D43F001034365E26DC1
:1028200001239340334209D02268526912F0800F8D
:1028300004D0BB60636D43F002036365E26D042363
:102840009340334209D02268126812F0020F04D07C
:10285000BB60636D43F004036365E26D1023934036
:10286000334224D02268126812F0080F1FD0BB60D8
:1028700023681A6812F4802F0DD01B6813F4002F00
:1028800004D1236C9BB12046984710E0A36C73B130
:10289000204698470BE01A6812F4807F03D11A682B
:1028A00022F008021A60236C0BB120469847E26DB3
:1028B00020239340334255D02268126812F0100F43
:1028C00050D0BB6094F83530DBB2052B0ED02368B6
:1028D0001A6812F4802F33D01B6813F4002F2AD10A
:1028E000636C002B3ED0204698473BE0226813687B
:1028F00023F0160313602268536923F080035361A9
:10290000236CA3B12268136823F008031360E26DFF
:102910003F239340BB60012384F83530002384F8C3
:102920003430236D002B3FD0204698473CE0A36C09
:10293000002BE7D1EBE7E36BA3B12046984711E00A
:102940001A6812F4807F09D11A6822F010021A6006
:10295000012384F83530002384F83430E36B0BB165
:1029600020469847636DFBB1636D13F0010F17D0DC
:10297000052384F835302268136823F001031360BF
:10298000019B01330193AB4204D823681B6813F009
:10299000010FF5D1012384F83530002384F8343059
:1029A000E36C0BB12046984703B0F0BD0400002053
:1029B000B5814E1B00230F2B00F2EC8030B583B0A5
:1029C00068E085684FEA430E032404FA0EF425EA12
:1029D0000405CC6804FA0EF42C438460446824EAAD
:1029E00002044A68C2F300129A40224342605FE048
:1029F000DC08083450F8242003F00705AD004FF040
:102A00000F0E0EFA05FE22EA0E0E0A69AA4042EAED
:102A10000E0240F824205FE0072200E0002202FAC4
:102A20000EF22A4302345C4D45F824205B4A946838
:102A30006FEA0C0224EA0C05D1F804E01EF4801FB2
:102A400001D04CEA0405554CA560E46802EA04058F
:102A5000D1F804E01EF4001F01D04CEA04054F4CED
:102A6000E560646802EA0405D1F804E01EF4003F62
:102A700001D04CEA0405494C6560246822404D6849
:102A800015F4803F01D04CEA0402444C226001332B
:102A90000F2B7DD801229A400C6804EA020C32EA1E
:102AA0000404F4D14C6804F00304013C012C88D9DF
:102AB0004A6802F00302032A09D0C4685D000322B9
:102AC000AA4024EA02048A68AA402243C2604A68F3
:102AD00002F00302022A8BD004684FEA430E03225D
:102AE00002FA0EF224EA02044A6802F0030202FA31
:102AF0000EF2224302604A6812F4403FC7D000221F
:102B00000192274A546C44F480445464526C02F499
:102B100080420192019A9C08A51C1F4A52F8255038
:102B200003F0030E4FEA8E0E0F2202FA0EF225EA90
:102B300002051C4A90423FF471AF02F58062904258
:102B40001AD002F58062904218D002F5806290425D
:102B500016D002F58062904214D002F58062904255
:102B600012D002F58062904210D002F5806290424D
:102B70003FF452AF082252E7012250E702224EE70B
:102B800003224CE704224AE7052248E7062246E7EB
:102B900003B030BD704700BF00380140003C014029
:102BA00000380240000002400AB181617047090408
:102BB0008161704708B5054B5B69034200D108BDD0
:102BC000024B58612CF08AFCF9E700BF003C014041
:102BD00003685A6912F4806F01D1002070476FF4C6
:102BE00080625A6100230363202280F83D2080F830
:102BF0003E30026C42F00402026480F83C30012056
:102C000070472DE9F04106460C46174698463BE0D2
:102C1000FFF756FB069BC01A404502D8B8F1000FDB
:102C200032D1012D18D033689B6924EA03039BB28B
:102C3000B3FA83F35B099F4226D10023336320223A
:102C400086F83D2086F83E30326C42F02002326435
:102C500086F83C30012027E033685B6924EA0303EF
:102C60009BB2B3FA83F35B09E5E733685B6924EA57
:102C7000030C1FFA8CFCBCFA8CFC4FEA5C1C674509
:102C800011D1B8F1FF3FC3D1C4F30745012DECD0FA
:102C900033689B6924EA030C1FFA8CFCBCFA8CFC99
:102CA0004FEA5C1CEBE70020BDE8F0812DE9F8431A
:102CB00005460E469046994653E01A6842F4007263
:102CC0001A602B686FF480625A6100232B63202204
:102CD00085F83D2085F83E302A6C42F004022A64D3
:102CE00085F83C3001204AE0FFF7EAFAA0EB090042
:102CF000404502D8B8F1000F33D1012F17D02B680F
:102D00009B6926EA03039BB2003B18BF012343B330
:102D100000232B63202285F83D2085F83E302A6C65
:102D200042F020022A6485F83C30012027E02B681D
:102D30005B6926EA03039BB2003B18BF0123E6E769
:102D40002B689C6926EA0404A4B2003C18BF012445
:102D5000A4B12B685A6912F4806FAED1B8F1FF3F6D
:102D6000C2D1C6F30747012FEAD12B685C6926EA76
:102D70000404A4B2003C18BF0124E9E70020BDE828
:102D8000F88370B504460D46164623685B6913F058
:102D9000800F21D12046FFF71BFFF8B9B5F1FF3FA7
:102DA000F3D0FFF78DFA801BA84201D8002DECD19B
:102DB00023685B6913F0800FE7D10023236320228F
:102DC00084F83D2084F83E30226C42F020022264D8
:102DD00084F83C30012000E0002070BD0120FCE7B9
:102DE0002DE9F04784B004460D46164699460C9FDF
:102DF000DDF834800268136843F48063136003686D
:102E0000196841F480711960CDF800803B460022BA
:102E10004FF00111FFF7F5FE70B95FFA85FA2368EC
:102E200005F0FE051D6143463A4641492046FFF73D
:102E30003DFF68B1012008E023681B6813F4807F20
:102E400002D04FF400732364032004B0BDE8F08780
:102E50000023039323685A6903929B690393039B9E
:102E6000424639462046FFF78CFF80B9B9F1010F81
:102E700018D12368F6B21E61424639462046FFF754
:102E800080FF68B3236C042B24D00120DDE7236C82
:102E9000042B01D00120D8E72268136843F40073A3
:102EA0001360F7E72368320A1A6142463946204622
:102EB000FFF767FF18B92368F6B21E61DCE7236CE1
:102EC000042B01D00120C0E72268136843F400738B
:102ED0001360F7E72268136843F400731360D4E7C4
:102EE0002268136843F480731360CDF800803B467A
:102EF00000224FF001112046FFF783FE68B92268D7
:102F00004AF00103136143463A4609492046FFF758
:102F1000CDFE002899D0012097E723681B6813F4A1
:102F2000807F02D04FF40073236403208DE700BF3D
:102F30000200010070B504460D46164614E06FF01D
:102F400010025A6100232363202284F83D2084F874
:102F50003E30226C226484F83C30012025E0236856
:102F60005B6913F0400F10D02368586910F0400FD0
:102F70001AD1586910F0100FE1D1FFF7A1F9801BA9
:102F8000A842ECD8002DEFD1E9E7002323632022EB
:102F900084F83D2084F83E30226C42F02002226406
:102FA00084F83C30012000E0002070BD002800F0D3
:102FB000CC8070B5044690F83D30002B77D02423A8
:102FC00084F83D302268136823F0010313602268FF
:102FD000136843F4004313602268136823F400432A
:102FE000136001F07BFB62685A4B9A4264D85A4BDB
:102FF00098428CBF00230123002B40F0A880574942
:10300000A1FB00318B0C25686A6822F03F0242EA7E
:1030100091426A6021680A6A22F03F0266684D4D5B
:10302000AE424FD8013313430B622168CA6922F4C0
:103030004F4222F0FF026568464B9D424CD8431E2A
:103040006D00B3FBF5F3013340F6FC70034278D01A
:10305000C3F30B031A43CA6121680B6823F0C00352
:10306000E269206A024313430B6021688B6823F4F2
:10307000034323F0FF032269E068024313438B609C
:103080002168CB6823F0FF036269A0690243134300
:10309000CB602268136843F00103136000202064B2
:1030A000202384F83D30206384F83E0070BD80F812
:1030B0003C30FEF7B3FB82E7294B98428CBF0023DC
:1030C000012399E74FF4967505FB03F3254DA5FB06
:1030D00003539B090133A6E7A668BEB9431E05EB5F
:1030E000450CB3FBFCF30133C3F30B03B3FA83F3D7
:1030F0005B0943BBC6B9431E05EB4505B3FBF5F3BE
:103100000133C3F30B0343F40043A3E7431E05EB72
:10311000850C0CEB8C0CB3FBFCF30133C3F30B03FA
:10312000B3FA83F35B09E4E7431E05EB850505EB82
:103130008505B3FBF5F30133C3F30B0343F44043BD
:1031400088E7042386E7012384E7012070470120F4
:10315000ACE700BFA08601007F841E0083DE1B4316
:10316000FF083D00D34D62102DE9F04387B00446BF
:103170000F4690469946109EFFF7A2F8054694F830
:103180003D00C0B2202804D00227384607B0BDE871
:10319000F08300951923012288492046FFF731FD6D
:1031A000002840F04D8194F83C30012B00F04A811A
:1031B000012384F83C3023681A6812F0010F03D110
:1031C0001A6842F001021A602268136823F400634F
:1031D0001360222384F83D30402384F83E300023DE
:1031E00023640E9B6362BDF83C306385638D238549
:1031F000734BE362019500964B46424639462046A2
:10320000FFF7EEFD0746002840F01E81238D5BB9D5
:10321000029323685A6902929A690292029A1A6882
:1032200042F400721A6075E0012B0AD0022B1AD00A
:103230000023059323685A6905929B690593059BB2
:1032400068E02268136823F480631360002303930B
:1032500023685A6903929A690392039A1A6842F49E
:1032600000721A6056E02268136823F480631360CA
:103270002268136843F400631360002304932368F7
:103280005A6904929B690493049B43E02A463146A1
:103290002046FFF74FFE002840F0D88023681A69C7
:1032A000636A1A70636A01336362238D013B23856D
:1032B000638D9BB2013B9BB263852BE00095334647
:1032C000002240492046FFF79CFC002840F0C080C7
:1032D0002268136843F40073136023681A69636AF1
:1032E0001A70626A531C6362238D013B2385638DD0
:1032F0009BB2013B9BB2638523681B695370636A71
:1033000001336362238D013B2385638D9BB2013BB7
:103310009BB26385238D002B00F08980032B53D84B
:10332000012BB3D0022BC9D000953346002225498A
:103330002046FFF766FC002840F08C802268136866
:1033400023F48063136023681A69636A1A70636ADE
:1033500001336362238D013B2385638D9BB2013B67
:103360009BB2638500953346002216492046FFF73D
:1033700048FC002870D12268136843F4007313607E
:1033800023681A69636A1A70626A531C6362238D28
:10339000013B2385638D9BB2013B9BB26385236810
:1033A0001B695370636A01336362238D013B23857C
:1033B000638D9BB2013B9BB26385ABE702001000BB
:1033C0000000FFFF040001002A4631462046FFF7B7
:1033D000B1FD002842D123681A69636A1A70636AD2
:1033E00001336362228D013A92B22285638D9BB2D2
:1033F000013B9BB263852368596911F0040F89D0A2
:10340000032A0FD023681A69636A1A70636A01334A
:103410006362238D013B2385638D9BB2013B9BB28D
:10342000638577E71A6822F480621A60EAE720234E
:1034300084F83D30002384F83E3084F83C30A4E624
:103440000227A2E60227A0E601279EE601279CE6C6
:1034500001279AE6012798E6012796E6012794E6D8
:103460002DE9F04383B0D0F8008001EBC10300EBFD
:1034700083039A6A5B6A9A4254D807460C469B1AA1
:1034800001EBC10200EB8202D2699A4200D31A46D4
:1034900002F103094FEA990915E006F103094FEA21
:1034A0009909BB7904EBC40507EB8505296A0093EC
:1034B000B3B2E2B2404602F0D5FA2B6A33442B6233
:1034C000AB6A3344AB6208EB441303F510639B69AA
:1034D0009BB24B4512D304EBC40307EB83039A6AF8
:1034E0005B6A9A420AD24BB19B1A04EBC40207EB07
:1034F0008202D6699E42D0D31E46CEE704EBC403B7
:1035000007EB83077A6ABB6A9A420FD804F00F046C
:103510000122A240D8F8343823EA0203C8F834382C
:10352000002000E0012003B0BDE8F0830020FAE7AE
:1035300030B583B000287AD00446056890F89534F9
:10354000C3B1032384F89534B5F1A04F17D0206898
:1035500002F03CF8237C8DF80030231D0ECB206850
:1035600001F072FF70B1022384F8953401252846DA
:1035700003B030BD80F894342BF0DEFDE1E700238A
:10358000A371E4E70021206802F089FC024608B933
:10359000034617E0022384F895340125E7E703EB9F
:1035A000C30104EB8101012048750B75CB85002018
:1035B0000876C861086203EBC30104EB810148622D
:1035C0000133DBB220799842E9D816E002EBC2035E
:1035D00004EB8303002183F8551283F8542283F807
:1035E0005812C3F85C12C3F8601202EBC20304EB7A
:1035F0008303C3F864120132D2B29042E6D8237C2E
:103600008DF80030231D0ECB206802F035F80546FA
:1036100020B1022384F895340125A8E700236374C0
:10362000012384F89534206802F0F8FB9FE7012518
:103630009DE7036890F89424012A1AD010B5044637
:10364000012280F89424DA6812F0400F02D0427B05
:10365000012A09D0206801F0B3FF206802F0D0FBF6
:10366000002084F8940410BD9A6B42F480329A636F
:10367000F0E702207047000070B504460D46006870
:10368000066C00EB411303F530639A68A1790129B8
:1036900011D038498E4256D03DB905EBC50304EB35
:1036A0008303D3F86432002B5ED0E9B220462BF0BE
:1036B0008DFD002070BD12F0080F09D02E498E42FA
:1036C000F7D912F4004FF4D04FF400429A60F0E7BB
:1036D00012F0200F02D020229A60EAE712F0280FA1
:1036E000E7D125498E4206D912F4004F03D04FF49A
:1036F00000429A60DDE705EBC50204EB8202D2F8D6
:1037000074121B69C3F31203CB1AC2F868327DB975
:1037100005EBC50204EB8202D2F864226AB105EB24
:10372000C50204EB8202D2F860121944C2F860129A
:10373000E9B220462BF04AFDBBE704F29C4201218E
:1037400002F0EEFBF4E712F4004F03D04FF4004216
:103750009A60AEE712F0200F01D020229A60E9B201
:1037600020462BF033FDA4E704F29C42002102F036
:10377000D7FB9AE70A31544F0A30544F38B5044604
:1037800003681D6C03EB4113D3F8081B0E4A9542E6
:1037900007D903F5306311F4004F02D04FF4004213
:1037A0009A6020462BF00AFD074B9D4202D9A3796F
:1037B000012B01D0002038BD04F29C420121206879
:1037C00002F0AEFBF6E700BF0A30544F90F8943495
:1037D000012B0CD010B50446012380F894344174B9
:1037E000006802F0FDFA002084F8940410BD022065
:1037F000704738B505468C4611F0800F2BD101F08B
:103800000F0E0EEBCE04A40004F514740444211D25
:103810000EEBCE0E00EB8E0E00208EF855020CF053
:103820000F0C81F800C0C2F30A028A600B714A785B
:103830000AB1A1F81AC0022B1CD095F89434012BC0
:103840001BD0012385F89434286801F0F0FF002094
:1038500085F8940438BD01F00F0000EBC001890029
:1038600010312944043100EBC00005EB8000012435
:103870004475D4E700234B71DFE70220EAE710B577
:1038800004460A4611F0800F20D101F00F0000EB32
:10389000C0039B0003F514732344191D00EBC00003
:1038A00004EB8000002380F8553202F00F020A700A
:1038B00094F89434012B18D0012384F894342068B0
:1038C00002F002F8002084F8940410BD01F00F000B
:1038D00000EBC0039B0010332344191D00EBC00014
:1038E00004EB800001234375DFE70220EDE710B50C
:1038F000144601F00F0C0CEBCC01890001F514719A
:10390000014404310CEBCC0E00EB8E0ECEF860229D
:10391000CEF864320023CEF868328EF855328EF835
:1039200054C28279012A04D0006802F0B3F8002062
:1039300010BDCEF87042F7E701F00F0101EBC101B5
:1039400000EB8100D0F86802704710B5144601F012
:103950000F0C0CEBCC0189001031014404310CEB4D
:10396000CC0E00EB8E0ECEF82020CEF824300023B3
:10397000CEF8283001238EF815308EF814C08279E5
:103980009A4204D0006802F085F8002010BDCEF8FD
:103990003040F7E738B501F00F050279AA4238D375
:1039A00004460B4611F0800F1FD101EBC1018900C5
:1039B00001F514710144043103EBC30300EB8303ED
:1039C000002283F8552201238B700D7094F89434F3
:1039D000012B20D0012384F89434206802F0A5F94B
:1039E00085B1002084F8940438BD05EBC501890039
:1039F00010310144043105EBC50300EB83030122C0
:103A00005A75E0E704F29C42A179206802F088FA36
:103A1000E7E70120E8E70220E6E701F00F0302797B
:103A20009A4230D310B5044611F0800F1ED103EB3B
:103A3000C301890001F514710144043103EBC30291
:103A400000EB8202002082F8550200228A700B707F
:103A500094F89434012B18D0012384F8943420680E
:103A600002F090F9002084F8940410BD03EBC30128
:103A7000890010310144043103EBC30200EB8202E0
:103A800001205075E1E7012070470220EDE708B5FD
:103A900011F0800F0CD101F00F0101EBC101890081
:103AA00001F5147101440431006801F07DFF08BD87
:103AB00001F00F0101EBC101890010310144043113
:103AC000F2E72DE9F04F83B004460568284602F07E
:103AD000E2F910B103B0BDE8F08F0646206802F0AD
:103AE000ABF90028F6D005F50067BB68C3F30D23DA
:103AF000C4F8D434206802F09FF910F0020F04D00B
:103B00002268536903F002035361206802F094F9BC
:103B100010F0100F13D02268936923F01003936103
:103B2000D5F8208008F00F09C8F34343022B4BD08F
:103B3000062B6FD02268936943F0100393612068CD
:103B400002F07AF910F4002F76D1206802F074F9AF
:103B500010F4802F40F0E080206802F06DF900281A
:103B6000C0F26181206802F067F910F4006F09D09B
:103B7000BB6813F0010F40F06E812268536903F4B3
:103B800000635361206802F057F910F4805F40F041
:103B90006681206802F050F910F4005F40F0B381B4
:103BA000206802F049F910F0080F40F0C481206845
:103BB00002F042F910F0800F00F0D781AB6923F0DA
:103BC0008003AB610126C0E147F6F07318EA030FEA
:103BD000B0D04FEA181A4FEAC903019309EBC90B99
:103BE00004EB8B0BC8F30A12DBF86012284602F0D4
:103BF00079F8DBF86032CAF30A0A5344CBF8603232
:103C0000DBF86832019A4A4404EB82025344C2F85A
:103C100068328FE7082204F29C41284602F062F8DD
:103C200009EBC90304EB8303D3F86822C8F30A182D
:103C30004244C3F868227DE7206802F001F980461B
:103C4000B14635E005EB49130122C3F8082B49467C
:103C50002046FFF711FD3CE005EB49130822C3F8AD
:103C6000082B49462046FFF789FD35E009EBC903DB
:103C700004EB830393F85732012B41D005EB491332
:103C80000222C3F8082B1AF0200F04D005EB4913C9
:103C90002022C3F8082B1AF4005F05D005EB491366
:103CA0004FF40052C3F8082B09F101094FEA5808F4
:103CB000B8F1000F3FF449AF18F0010FF4D05FFAEC
:103CC00089FB5946206802F0CBF8824610F0010FBC
:103CD000B8D11AF0080FBFD11AF0100F04D005EBBD
:103CE00049131022C3F8082B1AF0020FCBD06B69CE
:103CF00013F0800FBAD07B6843F480637B60B5E734
:103D000009EBC90304EB8303002283F857225946C9
:103D100020462BF0ABFAB1E7206802F099F8804614
:103D2000B14625E0594620462BF05CFA1AF0080F00
:103D300004D005EB49130822C3F808291AF0100F24
:103D400004D005EB49131022C3F808291AF0400FDC
:103D500004D005EB49134022C3F808291AF0020FDA
:103D600040D11AF0800F59D109F101094FEA5808E2
:103D7000B8F1000F3FF4F0AE18F0010FF4D05FFA85
:103D800089FB5946206802F074F8824610F0010F52
:103D9000CCD009F00F02012101FA02F27B6B23EA79
:103DA00002037B6305EB4913C3F80819A3798B421F
:103DB000B8D109EBC90304EB83031A6AD9690A4431
:103DC0001A62B9F1000FADD109EBC90304EB83030B
:103DD0005B6A002BA6D104F29C420121206802F00C
:103DE0009FF89FE74946284601F0F6FB09EBC90317
:103DF00004EB8303DB7D012B05D005EB4913022285
:103E0000C3F80829ADE709EBC90304EB83030022DB
:103E1000DA75594620462BF02FFAEEE74946204640
:103E2000FFF71EFBA0E77B6823F001037B6094F89B
:103E3000CC34012B08D020462BF012FA22685369AB
:103E400003F0004353618DE6002184F8CC14204632
:103E500000F03DF9F2E720462BF0EAF98DE67B68A9
:103E600023F001037B601021206801F0B5FB1AE00C
:103E700005EB46134FF67F31C3F80819D3F8002934
:103E800022F40012C3F80029C3F8081BD3F8002B52
:103E900022F40012C3F8002BD3F8002B42F000628A
:103EA000C3F8002B01362379B342E1D8FB6943F014
:103EB0000113FB61E37BDBB1D7F8843043F00B03E4
:103EC000C7F884307B6C43F00B037B64D5F8003873
:103ED00023F4FE63C5F8003804F29C42A1792068FF
:103EE00002F01EF82268536903F48053536150E6D0
:103EF0007B6943F4005343F02B037B613B6943F040
:103F00000B033B61E2E7206801F0FAFF206801F053
:103F10007DFCE071266800F0DBFB0146E27930466B
:103F200001F0DCFA20462BF06EF92268536903F4A5
:103F30000053536134E620462BF05FF92268536941
:103F400003F00803536132E601362379B3420CD9FA
:103F500006EBC60304EB830393F85732012BF3D12E
:103F6000F1B22046FFF793FDEEE7206801F064FF11
:103F700010F4801F25D1206801F05EFF10F4001FAF
:103F800058D0012326E001362379B3421BD905EB33
:103F90004613D3F8002906EBC60304EB83031B7E0C
:103FA000012BF0D1002AEEDA06EBC60304EB830303
:103FB0000122DA7566F07F01C9B22046FFF767FD7E
:103FC000E1E70126E0E72268536903F480135361B7
:103FD000D1E7013322799A4227D905EB4312D2F86F
:103FE000001B03EBC30204EB820292F85822012A61
:103FF000EFD10029EDDAD4F8D42482EA114212F08C
:10400000010FE6D103EBC30204EB8202012182F827
:104010005712AA6942F08002AA616A6912F0800F01
:10402000D7D17B6843F400737B602268536903F443
:1040300000135361206801F0FFFE10F0804F10D193
:10404000206801F0F9FE10F0040F3FF443AD23683F
:104050005D6815F0040F0DD1226853682B4353603F
:1040600038E520462BF00EF92268536903F08043AF
:104070005361E5E720462BF00BF9EDE710B4046837
:10408000606A29B940EA0240A062002010BC704773
:104090008C46A36A00EB1340002308E003F14001C3
:1040A00004EB8101496800EB11400133DBB20CF1F4
:1040B000FF318B42F2D340EA02400CF13F0104EBA6
:1040C00081046060E1E7036859620020704770472F
:1040D000002800F0E08170B582B00446036813F058
:1040E000010F3BD09F4B9B6803F00C03042B2CD09B
:1040F0009C4B9B6803F00C03082B21D06368B3F53D
:10410000803F4FD0B3F5A02F52D0964B1A6822F4BF
:1041100080321A601A6822F480221A606368002BC9
:1041200050D0FEF7CDF805468E4B1B6813F4003FC8
:1041300014D1FEF7C5F8401B6428F5D90320B1E17E
:10414000884B5B6813F4800FD8D0864B1B6813F440
:10415000003F03D06368002B00F09F81236813F0B9
:10416000020F54D07F4B9B6813F00C0F3ED07D4B59
:104170009B6803F00C03082B33D0E368002B68D056
:10418000794B01221A60FEF79BF80546754B1B68B8
:1041900013F0020F54D1FEF793F8401B0228F5D913
:1041A00003207FE16F4A136843F480331360B5E75F
:1041B0006C4B1A6842F480221A601A6842F480320A
:1041C0001A60ABE7FEF77CF80546664B1B6813F4F4
:1041D000003FC3D0FEF774F8401B6428F5D90320D4
:1041E00060E1604B5B6813F4800FC6D15D4B1B68C8
:1041F00013F0020F03D0E368012B40F05081594ABD
:10420000136823F0F803216943EAC10313602368AC
:1042100013F0080F42D063696BB3534B0122C3F80C
:10422000802EFEF74DF805464E4B5B6F13F0020FE4
:1042300034D1FEF745F8401B0228F5D9032031E1BF
:10424000484A136823F0F803216943EAC103136065
:10425000DDE7454B00221A60FEF732F80546414B78
:104260001B6813F0020FD2D0FEF72AF8401B022879
:10427000F5D9032016E13C4B0022C3F8802EFEF74F
:104280001FF80546374B5B6F13F0020F06D0FEF7A1
:1042900017F8401B0228F5D9032003E1236813F027
:1042A000040F77D02F4B1B6C13F0805F33D10023AA
:1042B00001932C4B1A6C42F080521A641B6C03F071
:1042C00080530193019B0125284B1B6813F4807FC9
:1042D00023D0A368012B34D0052B38D0214B1A6F83
:1042E00022F001021A671A6F22F004021A67A3680B
:1042F000002B3DD0FDF7E4FF06461A4B1B6F13F071
:10430000020F46D1FDF7DCFF801B41F28833984253
:10431000F3D90320C6E00025D6E7144A136843F416
:1043200080731360FDF7CCFF0646104B1B6813F437
:10433000807FCED1FDF7C4FF801B0228F5D9032072
:10434000B0E0084A136F43F001031367CFE7054B52
:104350001A6F42F004021A671A6F42F001021A67DC
:10436000C5E700BF0038024000004742007000402F
:10437000FDF7A6FF0646524B1B6F13F0020F08D045
:10438000FDF79EFF801B41F288339842F3D903204A
:1043900088E0EDB9A369002B00F08380484A926859
:1043A00002F00C02082A51D0022B17D0454B0022F4
:1043B0001A66FDF785FF0446414B1B6813F0007F2A
:1043C00042D0FDF77DFF001B0228F5D9032069E0EC
:1043D0003B4A136C23F080531364DBE7394B002214
:1043E0001A66FDF76DFF0546354B1B6813F0007F1D
:1043F00006D0FDF765FF401B0228F5D9032051E0E8
:10440000E369226A1343626A43EA8213A26A52088A
:10441000013A43EA0243E26A43EA0263284A5360EC
:10442000284B01221A66FDF74BFF0446244B1B68FC
:1044300013F0007F06D1FDF743FF001B0228F5D9DA
:1044400003202FE000202DE000202BE0012B2BD0BB
:104450001B4B5B6803F48001E269914226D103F0B3
:104460003F02216A8A4223D1616A47F6C0721A402C
:10447000B2EB811F1ED103F44031A26A5208013A07
:10448000B1EB024F18D103F07063E26AB3EB026F35
:1044900014D1002006E001207047012002E0012035
:1044A00000E0002002B070BD0120FBE70120F9E729
:1044B0000120F7E70120F5E70120F3E70120F1E70C
:1044C000003802400000474208B5264B9B6803F0C5
:1044D0000C03042B41D0082B41D1224B5A6802F027
:1044E0003F025B6813F4800F12D01E4B5968C1F372
:1044F00088111D480023A1FB0001FCF78FFB194B1D
:104500005B68C3F3014301335B00B0FBF3F027E0CA
:10451000144B5868C0F388104FEA401CBCEB000CE9
:104520006EEB0E0E4FEA8E1343EA9C634FEA8C113A
:10453000B1EB0C0163EB0E03DB0043EA5173C900DE
:1045400011EB000C43F10003990200234FEA8C2089
:1045500041EA9C51FCF762FBD1E7034800E00348C5
:1045600008BD00BF0038024040787D010024F400FF
:10457000002800F09B8070B50D4604464F4B1B6829
:1045800003F007038B4208D2CBB24C4A1370136876
:1045900003F007038B4240F08B80236813F0020F77
:1045A00017D013F0040F04D0454A936843F4E05346
:1045B0009360236813F0080F04D0414A936843F4D2
:1045C000604393603E4A936823F0F003A1680B4375
:1045D0009360236813F0010F32D06368012B21D060
:1045E0009A1E012A25D9364A126812F0020F61D0AC
:1045F00033498A6822F0030213438B60FDF760FEA3
:1046000006462F4B9B6803F00C036268B3EB820FE6
:1046100016D0FDF755FE801B41F288339842F0D941
:10462000032042E0264A126812F4003FE0D1012044
:104630003BE0234A126812F0007FD9D1012034E018
:104640001E4B1B6803F00703AB4207D9EAB21B4BB2
:104650001A701B6803F00703AB422DD1236813F0D7
:10466000040F06D0164A936823F4E053E1680B4325
:104670009360236813F0080F07D0114A936823F45E
:104680006043216943EAC1039360FFF71DFF0C4BB0
:104690009B68C3F303130B4AD35CD8400A4B1860E2
:1046A0000A4B1868FDF7C0FD002070BD012070475F
:1046B0000120FAE70120F8E70120F6E7003C02407C
:1046C00000380240C05A0308040000200C000020FB
:1046D000014B1868704700BF0400002008B5FFF7C1
:1046E000F7FF044B9B68C3F38223034AD35CD84093
:1046F00008BD00BF00380240B85A03082DE9F04752
:1047000082B00546884617461E46FDF7D9FD0A9B2E
:104710001B1A03EB0609FDF7D3FD8246284B1B68E5
:10472000C3F3CB3309FB03F301932B689C6838EA8E
:1047300004040CBF01230023BB423DD0B6F1FF3F70
:10474000F3D0FDF7BDFDA0EB0A00484503D2019B65
:1047500073BB9946E9E72A68536823F0E003536086
:104760006B68B3F5827F0BD0AB6AB3F5005F14D0F2
:10477000012385F85130002385F8503003201CE0D8
:10478000AB68B3F5004F02D0B3F5806FECD12A6867
:10479000136823F040031360E6E72A68136823F4E4
:1047A000005313602A68136843F400531360DFE773
:1047B000019B013B0193B8E7002002B0BDE8F08700
:1047C0000400002070B584B004460D4616460092E1
:1047D0000B4601220221FFF791FFD0B9174B1B684E
:1047E000174AA2FB03235B0D4FF47A7202FB03F31B
:1047F00003936368B3F5827F11D0039B3BB1039BA6
:10480000013B039323689B6813F0800FF5D104B03C
:1048100070BD636D43F0200363650320F7E70096E6
:104820002B46002280212046FFF768FF0028EED0AB
:10483000636D43F0200363650320E8E70400002074
:10484000819F5E1600285AD010B50446436A33B9DA
:104850004368B3F5827F05D00023C36102E00023E3
:10486000036143610023A36294F85130002B40D0D0
:10487000022384F851302268136823F04003136048
:10488000636803F48273A26802F404421343E2688B
:1048900002F400621343226902F0020213436269C8
:1048A00002F001021343A26902F400721343E269A9
:1048B00002F038021343226A02F080021343A26A14
:1048C00002F40052216813430B60638B03F004036E
:1048D000626A02F01002216813434B602268D369B8
:1048E00023F40063D36100206065012384F8513014
:1048F00010BD84F850302046FDF73CFAB8E701209F
:1049000070472DE9F04383B00446894690461D4622
:10491000FDF7D6FC94F85160F6B2012E40F0CC8041
:104920000746B9F1000F00F0C880B8F1000F00F0A1
:10493000C48094F85030012B00F0C380012384F828
:104940005030032384F8513000236365C4F830905D
:10495000A4F83480A4F83680A363A387E387636454
:104960002364A368B3F5004F1ED023681A6812F0C1
:10497000400F03D11A6842F040021A60E368B3F5B1
:10498000006F1CD0636813B1B8F1010F5FD1226BC7
:10499000236812781A73236B01332363E38E9BB26F
:1049A000013B9BB2E38652E02268136823F0400388
:1049B00013602268136843F480431360D5E763688B
:1049C00013B1B8F1010F15D1226B23681288DA6098
:1049D000236B02332363E38E9BB2013B9BB2E386DE
:1049E00008E0FDF76DFCC01BA84202D3B5F1FF3F04
:1049F00015D1A5B1E38E9BB2002B42D023689A68F3
:104A000012F0020FEDD0226B1288DA60236B0233B2
:104A10002363E38E9BB2013B9BB2E386EAE701236B
:104A200084F85130002384F85030032645E0226B8F
:104A300012781A73236B01332363B4F836C01FFA5C
:104A40008CFC0CF1FF3C1FFA8CFCA4F836C0E38E02
:104A50009BB2B3B123689A6812F0020FE7D1FDF759
:104A60002FFCC01BA84202D3B5F1FF3F01D1002D9E
:104A7000EDD1012384F85130002384F8503003260F
:104A80001BE03A4629462046FFF79CFE08B120234A
:104A90006365A36833B901932368DA6801929B6860
:104AA0000193019B012384F85130002384F8503096
:104AB000636D13B9002600E00226304603B0BDE85E
:104AC000F0830226F9E7000038B590F85150EDB2B6
:104AD000012D5DD1044600295BD0002A59D090F801
:104AE0005030012B57D0012380F85030032380F839
:104AF00051300023436501638286C2868363436429
:104B000003648387C3878368B3F5004F2DD0A36CFC
:104B1000224A1A64A36C224ADA63A36C214ADA643B
:104B2000A36C00221A652268E38E9BB20C32216BC3
:104B3000A06CFDF709FE014610BB23681A6812F04D
:104B4000400F03D11A6842F040021A60002384F833
:104B500050302268536843F0200353602268536842
:104B600043F0020353600D4613E00268136823F01C
:104B7000400313600268136843F480431360C6E780
:104B8000636D43F010036365002384F8503000E048
:104B90000225284638BD0225FBE700BFAD4B0008C3
:104BA000DB4B0008B94B00087047704708B5806BB5
:104BB000FFF7FBFF08BD704708B5806B02685368BC
:104BC00023F003035360436D43F010034365012357
:104BD00080F85130FFF7EFFF08BD30B583B00546D0
:104BE000846BFDF76DFB2B681B6813F4807F23D16A
:104BF000024621684B6823F020034B6021684B6814
:104C000023F002034B6064212046FFF7DBFD18B15F
:104C1000636D43F020036365A36833B90193236890
:104C2000DA6801929B680193019B0023E3860123CC
:104C300084F85130636D23B92046FFF7B5FF03B008
:104C400030BD2046FFF7B7FFF9E7000010B584B08C
:104C5000044602685168936803F04100012867D058
:104C600013F0020F02D011F0800F68D113F4B07F5F
:104C700068D011F0200F65D013F0400F0FD094F8DA
:104C80005100C0B203285FD0606D40F00400606541
:104C900000200090D068009090680090009813F079
:104CA000200F0CD0606D40F0010060650020029084
:104CB00090680290106820F040001060029A13F48F
:104CC000807F09D0636D43F008036365002303937D
:104CD00023689B680393039B636D002B32D022688B
:104CE000536823F0E0035360012384F8513011F03E
:104CF000030F31D02268536823F003035360E36C41
:104D00004BB1174A1A65E06CFDF753FD18B1636D9E
:104D100043F040036365A36CA3B1114A1A65A06C0C
:104D2000FDF747FD70B1636D43F04003636509E033
:104D300011F0400F94D0236C2046984702E0636C3A
:104D40002046984704B010BD00230193D368019317
:104D500093680193019BF5E72046FFF72CFFF1E7ED
:104D6000654D000808B5806B0023C387C386FFF735
:104D700022FF08BD30B4036A026A22F00102026217
:104D80004268846924F0730C0C6844EA0C0423F034
:104D9000020C8B6843EA0C03114DA84203D005F5C1
:104DA0008065A84205D123F00803CD682B4323F08A
:104DB00004030B4DA84203D005F58065A84207D136
:104DC00022F440724D6945EA020C8A6942EA0C02FB
:104DD000426084614A684263036230BC704700BF2E
:104DE0000000014030B4036A026A22F48072026259
:104DF0004268C46924F0730C0C6844EA0C0523F47F
:104E000000738C6843EA0423114CA04203D004F5DC
:104E10008064A04206D123F40063CC6843EA0423F3
:104E200023F480630A4CA04203D004F58064A042BE
:104E300007D122F440524C6942EA04128C6942EADA
:104E400004124260C5614A68C263036230BC7047A5
:104E50000000014030B4036A026A22F48052026208
:104E60004468C26922F4E6420D6842EA052223F44E
:104E700000538D6843EA0533094DA84203D005F578
:104E80008065A84204D124F480444D6944EA851425
:104E90004460C2614A680264036230BC704700BF6C
:104EA0000000014090F83D30DBB2012B37D10223E6
:104EB00080F83D300268D36843F00103D360036893
:104EC000194A934220D0B3F1804F1DD0A2F57C4205
:104ED000934219D002F58062934215D002F58062A8
:104EE000934211D002F5784293420DD002F57052F0
:104EF000934209D0A2F59432934205D01A6842F049
:104F000001021A60002070479A6802F00702062A20
:104F100007D01A6842F001021A6000207047012091
:104F200070470020704700BF000001407047704785
:104F30007047704770B504460368DE681D6915F058
:104F4000020F10D016F0020F0DD06FF002021A619E
:104F50000123037703689B6913F0030F5ED0FFF70B
:104F6000E6FF0023237715F0040F12D016F0040F8C
:104F70000FD023686FF004021A610223237723689D
:104F80009B6913F4407F4FD02046FFF7D0FF0023EA
:104F9000237715F0080F12D016F0080F0FD02368F2
:104FA0006FF008021A61042323772368DB6913F08A
:104FB000030F40D02046FFF7BAFF0023237715F0F8
:104FC000100F12D016F0100F0FD023686FF01002E0
:104FD0001A61082323772368DB6913F4407F31D0FB
:104FE0002046FFF7A4FF0023237715F0010F02D01E
:104FF00016F0010F2DD115F0800F02D016F0800FA2
:105000002FD115F0400F02D016F0400F31D115F01E
:10501000200F02D016F0200F33D170BDFFF786FFAE
:105020002046FFF785FF9CE72046FFF77FFF2046DD
:10503000FFF77EFFABE72046FFF778FF2046FFF73C
:1050400077FFBAE72046FFF771FF2046FFF770FFB2
:10505000C9E723686FF001021A612046FCF740FDA2
:10506000C9E723686FF080021A61204600F0BFF99B
:10507000C7E723686FF040021A612046FFF759FF27
:10508000C5E723686FF020021A61204600F0AEF9F0
:10509000C3E700000368324A904212D0B0F1804F5B
:1050A0000FD0A2F57C4290420BD002F58062904274
:1050B00007D002F58062904203D002F57842904218
:1050C00003D123F070034A681343254A90422AD043
:1050D000B0F1804F27D0A2F57C42904223D002F558
:1050E000806290421FD002F5806290421BD002F590
:1050F0007842904217D002F57052904213D002F5D8
:10510000806290420FD002F5806290420BD0A2F5EF
:105110009832904207D002F58062904203D002F5A7
:105120008062904203D123F44073CA68134323F092
:1051300080034A6913438A68C2620A688262084A25
:10514000904203D002F58062904201D10A69026365
:10515000026842F00402026001224261036070476B
:105160000000014040B310B5044690F83D30F3B163
:10517000022384F83D30214651F8040BFFF78AFFE3
:10518000012384F8463084F83E3084F83F3084F8B8
:10519000403084F8413084F8423084F8433084F859
:1051A000443084F8453084F83D30002010BD80F84C
:1051B0003C30FCF76BFFDBE70120704740B310B5D4
:1051C000044690F83D30F3B1022384F83D30214687
:1051D00051F8040BFFF75EFF012384F8463084F892
:1051E0003E3084F83F3084F8403084F8413084F811
:1051F000423084F8433084F8443084F8453084F8F1
:105200003D30002010BD80F83C30FCF729FFDBE783
:105210000120704730B4036A026A22F01002026271
:105220004468826922F4E6420D6842EA052223F0CE
:1052300020038D6843EA0513114DA84203D005F5FC
:105240008065A84206D123F08003CD6843EA0513A8
:1052500023F040030A4DA84203D005F58065A8421B
:1052600007D124F440644D6944EA85048D6944EA19
:105270008504446082614A688263036230BC70477F
:105280000000014038B590F83C30012B66D0044650
:105290000D46012380F83C300C2A5AD8DFE802F092
:1052A000075959591B5959593059595944000068DF
:1052B000FFF760FD2268936943F008039361226859
:1052C000936923F0040393612268936929690B436E
:1052D000936100203EE00068FFF79CFF226893691D
:1052E00043F4006393612268936923F480639361BC
:1052F00022689369296943EA01239361002029E028
:105300000068FFF76FFD2268D36943F00803D3619B
:105310002268D36923F00403D3612268D369296921
:105320000B43D361002015E00068FFF793FD22686E
:10533000D36943F40063D3612268D36923F48063A3
:10534000D3612268D369296943EA0123D36100202C
:1053500000E00120002384F83C3038BD0220FCE747
:1053600090F83C20012A3CD010B40346012280F87A
:105370003C20022280F83D2002685068946820F0AA
:10538000700C086840EA0C0050601A6816488242A7
:105390001AD0B2F1804F17D0A0F57C40824213D0D2
:1053A00000F5806082420FD000F5806082420BD011
:1053B00000F57840824207D000F57050824203D059
:1053C000A0F59430824204D124F08004496821433E
:1053D0009160012283F83D20002083F83C0010BC3E
:1053E00070470220704700BF0000014070477047BF
:1053F00082B000230193019B01330193019BB3F120
:10540000706F1CD80369002BF5DA0A23019302E0C0
:10541000019B013B0193019B002BF9D1036943F0F0
:1054200001030361019B01330193019BB3F1706F91
:1054300008D8036913F0010FF4D1002000E0032025
:1054400002B070470320FBE784B010B5044603A800
:1054500080E80E009DF81130012B21D1A36B23F4BD
:105460008033A363E36823F4840323F04003E36001
:10547000E36823F44013E3609DF81830012B0AD051
:105480002046FFF7B5FF9DF80E30012B1CD0BDE87C
:10549000104004B07047E36843F48013E360EFE723
:1054A000E36843F04003E3602046FFF7A1FF9DF867
:1054B000153023B9A36B43F48033A363E3E7A36BF5
:1054C00023F48033A363DEE7A36843F00603A360FD
:1054D000A36843F02003A360D9E70000022A0AD0A2
:1054E0000922C36823F47053C360C36843EA82236C
:1054F000C36000207047234B0B44234A93422FD9AB
:10550000224B0B44224A93422CD9A1F57403A3F5F4
:105510001053204A934227D9A1F18373A3F5E7439F
:105520001D4A934222D31D4B0B441D4A93421FD95F
:105530001C4B0B441C4A93421CD31C4B0B441C4A6F
:10554000934219D3A1F1B773A3F55853194A934263
:1055500014D3194B0B44194A934211D20722C0E7C6
:105560000F22BEE70E22BCE70D22BAE70C22B8E7F5
:105570000B22B6E70A22B4E70922B2E70822B0E715
:105580000622AEE7405327FFFF340C00401E1BFFEE
:105590003F420F007F4F120020D6130060B6E5FE99
:1055A0005FE3160000D3CEFE40771B00C05BB3FE66
:1055B000C091210020753800E05459FEE09C410064
:1055C000836843F00103836000207047836823F001
:1055D000010383600020704782B000230193019B88
:1055E00001330193019BB3F1706F15D80369002B50
:1055F000F5DA00230193890141F020010161019B4B
:1056000001330193019BB3F1706F08D8036913F064
:10561000200FF4D1002000E0032002B070470320E7
:10562000FBE782B000230193019B01330193019BAF
:10563000B3F1706F13D80369002BF5DA00230193DF
:1056400010230361019B01330193019BB3F1706F40
:1056500008D8036913F0100FF4D1002000E00320F4
:1056600002B070470320FBE7D0F800381943C0F8B8
:10567000001800207047000084B0F8B5044607A861
:1056800080E80E00002306E003F1400204EB8202F2
:105690000021516001330E2BF6D99DF8266006BB20
:1056A000D4F8043843F00203C4F80438A36B43F47D
:1056B0000013A363A36B23F40023A363A36B23F45E
:1056C0008023A3630023C4F8003E9DF82130012B02
:1056D00015D19DF81F306BB900212046FFF7C4FF9C
:1056E00011E0A36B23F40013A363A36B43F4002323
:1056F000A363E7E701212046FFF7B6FF03E003219C
:105700002046FFF7B1FF10212046FFF765FF054651
:1057100000B101252046FFF784FF00B1012504F503
:10572000006C0023CCF81030CCF81430CCF81C30CE
:105730000AE0CBB94FF00060C2F8000900220A610C
:105740004FF67F328A6001339DF81C10994210D9C0
:1057500004EB431202F51061D2F800090028E8DBDF
:105760000020C2F80009E9E74FF09040C2F80009B4
:10577000E4E700230AE0BBB14FF09047C2F8007B9A
:10578000002202614FF67F3282600133994210D9C4
:1057900004EB431202F53060D2F8007B002FEADB05
:1057A0000027C2F8007BEBE74FF00067C2F8007BF0
:1057B000E6E7DCF8103023F48073CCF810300023D7
:1057C000A3616FF0804363619DF81E301BB9A3692C
:1057D00043F01003A361A2690B4B1343A3619DF82F
:1057E00022301BB1A36943F00803A361012E04D04A
:1057F0002846BDE8F84004B07047A36943F08043F1
:1058000043F00403A361F3E700383C80D0F8083884
:1058100013F0060307D0022B07D0062B01D00F2070
:10582000704702207047002070470220704710B573
:1058300091F800C04B78012B23D000F5006ED0F812
:105840001C380CF00F040122A24043EA0243C0F8C6
:105850001C3800EB4C10D0F8003B13F4004F0ED175
:10586000D0F8003B8A68C2F30A02097942EA814211
:10587000134343F0805343F40043C0F8003B00203F
:1058800010BDD0F81C280CF00F0E03FA0EF39BB2DB
:105890001343C0F81C3800EB4C10D0F8003913F457
:1058A000004FECD1D0F800398A68C2F30A020979B6
:1058B00042EA814242EA8C52134343F0805343F45C
:1058C0000043C0F80039DAE730B40B784A78012A8F
:1058D00026D000EB4313D3F8002B002A52DBD0F87C
:1058E0003C480A7802F00F024FF0010C0CFA02F269
:1058F00024EA0242C0F83C28D0F81C28097801F0BC
:105900000F010CFA01FC22EA0C42C0F81C28D3F863
:10591000001B234A0A40C3F8002B002030BC70470C
:1059200000EB4313D3F80029002A1EDBD0F83C58C3
:105930000A7802F00F02012404FA02F292B225EA78
:105940000202C0F83C28D0F81C28097801F00F01A9
:105950008C40A4B222EA0402C0F81C28D3F8001933
:10596000104A0A40C3F80029D7E7D3F8002942F0CB
:105970000062C3F80029D3F8002942F08042C3F83E
:105980000029D3E7D3F8002B42F00062C3F8002BC4
:10599000D3F8002B42F08042C3F8002B9FE700BFF2
:1059A0000078F3EF007833EC10B483B002460023A4
:1059B0000193487801280AD00B7802EB4313D3F8FF
:1059C000000B00282CDB002003B010BC70470B78C4
:1059D00002EB4313D3F80049002C01DB0020F3E76E
:1059E000D3F8004944F00064C3F800490B7802EB97
:1059F0004313D3F8004944F08044C3F80049019BA5
:105A000001330193019C42F210739C42DCD80B7865
:105A100002EB4313D3F80039002BF0DB0020D3E76F
:105A2000D3F8000B40F00060C3F8000B0B7802EBDA
:105A30004313D3F8000B40F08040C3F8000B019BE8
:105A400001330193019842F21073984208D80B7801
:105A500002EB4313D3F8003B002BF0DB0020B3E74D
:105A60000120B1E710B59DF8084084B903334FEA2F
:105A7000930E4FF0000C08E000EB023303F5805367
:105A800051F8044B1C600CF1010CF445F4D30020D8
:105A900010BD0000F0B583B00C784B78012B2FD0EF
:105AA00000EB441C0CF530631D69ED0CED041D6129
:105AB0001D6925F0FF5525F4C0151D61002C40F02F
:105AC000D2800C690CB18C680C618C680C621D6909
:105AD000C4F312042C431C611C6944F400241C61AF
